{
  "_format": "hh-sol-artifact-1",
  "contractName": "NFTMarketlace",
  "sourceName": "contracts/NFTMarketplace.sol",
  "abi": [
    {
      "inputs": [],
      "stateMutability": "nonpayable",
      "type": "constructor"
    },
    {
      "anonymous": false,
      "inputs": [
        {
          "indexed": true,
          "internalType": "address",
          "name": "owner",
          "type": "address"
        },
        {
          "indexed": true,
          "internalType": "address",
          "name": "approved",
          "type": "address"
        },
        {
          "indexed": true,
          "internalType": "uint256",
          "name": "tokenId",
          "type": "uint256"
        }
      ],
      "name": "Approval",
      "type": "event"
    },
    {
      "anonymous": false,
      "inputs": [
        {
          "indexed": true,
          "internalType": "address",
          "name": "owner",
          "type": "address"
        },
        {
          "indexed": true,
          "internalType": "address",
          "name": "operator",
          "type": "address"
        },
        {
          "indexed": false,
          "internalType": "bool",
          "name": "approved",
          "type": "bool"
        }
      ],
      "name": "ApprovalForAll",
      "type": "event"
    },
    {
      "anonymous": false,
      "inputs": [
        {
          "indexed": false,
          "internalType": "uint256",
          "name": "_fromTokenId",
          "type": "uint256"
        },
        {
          "indexed": false,
          "internalType": "uint256",
          "name": "_toTokenId",
          "type": "uint256"
        }
      ],
      "name": "BatchMetadataUpdate",
      "type": "event"
    },
    {
      "anonymous": false,
      "inputs": [
        {
          "indexed": false,
          "internalType": "uint256",
          "name": "_tokenId",
          "type": "uint256"
        }
      ],
      "name": "MetadataUpdate",
      "type": "event"
    },
    {
      "anonymous": false,
      "inputs": [
        {
          "indexed": true,
          "internalType": "address",
          "name": "from",
          "type": "address"
        },
        {
          "indexed": true,
          "internalType": "address",
          "name": "to",
          "type": "address"
        },
        {
          "indexed": true,
          "internalType": "uint256",
          "name": "tokenId",
          "type": "uint256"
        }
      ],
      "name": "Transfer",
      "type": "event"
    },
    {
      "inputs": [
        {
          "internalType": "address",
          "name": "to",
          "type": "address"
        },
        {
          "internalType": "uint256",
          "name": "tokenId",
          "type": "uint256"
        }
      ],
      "name": "approve",
      "outputs": [],
      "stateMutability": "nonpayable",
      "type": "function"
    },
    {
      "inputs": [
        {
          "internalType": "address",
          "name": "owner",
          "type": "address"
        }
      ],
      "name": "balanceOf",
      "outputs": [
        {
          "internalType": "uint256",
          "name": "",
          "type": "uint256"
        }
      ],
      "stateMutability": "view",
      "type": "function"
    },
    {
      "inputs": [
        {
          "internalType": "string",
          "name": "tokenURI",
          "type": "string"
        },
        {
          "internalType": "uint256",
          "name": "price",
          "type": "uint256"
        }
      ],
      "name": "createToken",
      "outputs": [
        {
          "internalType": "uint256",
          "name": "",
          "type": "uint256"
        }
      ],
      "stateMutability": "payable",
      "type": "function"
    },
    {
      "inputs": [
        {
          "internalType": "uint256",
          "name": "tokenId",
          "type": "uint256"
        }
      ],
      "name": "executeSale",
      "outputs": [],
      "stateMutability": "payable",
      "type": "function"
    },
    {
      "inputs": [],
      "name": "getAllNfts",
      "outputs": [
        {
          "components": [
            {
              "internalType": "uint256",
              "name": "tokenId",
              "type": "uint256"
            },
            {
              "internalType": "address payable",
              "name": "owner",
              "type": "address"
            },
            {
              "internalType": "address payable",
              "name": "seller",
              "type": "address"
            },
            {
              "internalType": "uint256",
              "name": "price",
              "type": "uint256"
            },
            {
              "internalType": "bool",
              "name": "currentlyListed",
              "type": "bool"
            }
          ],
          "internalType": "struct NFTMarketlace.ListedToken[]",
          "name": "",
          "type": "tuple[]"
        }
      ],
      "stateMutability": "view",
      "type": "function"
    },
    {
      "inputs": [
        {
          "internalType": "uint256",
          "name": "tokenId",
          "type": "uint256"
        }
      ],
      "name": "getApproved",
      "outputs": [
        {
          "internalType": "address",
          "name": "",
          "type": "address"
        }
      ],
      "stateMutability": "view",
      "type": "function"
    },
    {
      "inputs": [],
      "name": "getCurrentToken",
      "outputs": [
        {
          "internalType": "uint256",
          "name": "",
          "type": "uint256"
        }
      ],
      "stateMutability": "view",
      "type": "function"
    },
    {
      "inputs": [],
      "name": "getLatestIdToListedToken",
      "outputs": [
        {
          "components": [
            {
              "internalType": "uint256",
              "name": "tokenId",
              "type": "uint256"
            },
            {
              "internalType": "address payable",
              "name": "owner",
              "type": "address"
            },
            {
              "internalType": "address payable",
              "name": "seller",
              "type": "address"
            },
            {
              "internalType": "uint256",
              "name": "price",
              "type": "uint256"
            },
            {
              "internalType": "bool",
              "name": "currentlyListed",
              "type": "bool"
            }
          ],
          "internalType": "struct NFTMarketlace.ListedToken",
          "name": "",
          "type": "tuple"
        }
      ],
      "stateMutability": "view",
      "type": "function"
    },
    {
      "inputs": [],
      "name": "getListPrice",
      "outputs": [
        {
          "internalType": "uint256",
          "name": "",
          "type": "uint256"
        }
      ],
      "stateMutability": "view",
      "type": "function"
    },
    {
      "inputs": [
        {
          "internalType": "uint256",
          "name": "tokenId",
          "type": "uint256"
        }
      ],
      "name": "getListedForTokenId",
      "outputs": [
        {
          "components": [
            {
              "internalType": "uint256",
              "name": "tokenId",
              "type": "uint256"
            },
            {
              "internalType": "address payable",
              "name": "owner",
              "type": "address"
            },
            {
              "internalType": "address payable",
              "name": "seller",
              "type": "address"
            },
            {
              "internalType": "uint256",
              "name": "price",
              "type": "uint256"
            },
            {
              "internalType": "bool",
              "name": "currentlyListed",
              "type": "bool"
            }
          ],
          "internalType": "struct NFTMarketlace.ListedToken",
          "name": "",
          "type": "tuple"
        }
      ],
      "stateMutability": "view",
      "type": "function"
    },
    {
      "inputs": [],
      "name": "getMyNfts",
      "outputs": [
        {
          "components": [
            {
              "internalType": "uint256",
              "name": "tokenId",
              "type": "uint256"
            },
            {
              "internalType": "address payable",
              "name": "owner",
              "type": "address"
            },
            {
              "internalType": "address payable",
              "name": "seller",
              "type": "address"
            },
            {
              "internalType": "uint256",
              "name": "price",
              "type": "uint256"
            },
            {
              "internalType": "bool",
              "name": "currentlyListed",
              "type": "bool"
            }
          ],
          "internalType": "struct NFTMarketlace.ListedToken[]",
          "name": "",
          "type": "tuple[]"
        }
      ],
      "stateMutability": "view",
      "type": "function"
    },
    {
      "inputs": [
        {
          "internalType": "address",
          "name": "owner",
          "type": "address"
        },
        {
          "internalType": "address",
          "name": "operator",
          "type": "address"
        }
      ],
      "name": "isApprovedForAll",
      "outputs": [
        {
          "internalType": "bool",
          "name": "",
          "type": "bool"
        }
      ],
      "stateMutability": "view",
      "type": "function"
    },
    {
      "inputs": [],
      "name": "name",
      "outputs": [
        {
          "internalType": "string",
          "name": "",
          "type": "string"
        }
      ],
      "stateMutability": "view",
      "type": "function"
    },
    {
      "inputs": [
        {
          "internalType": "uint256",
          "name": "tokenId",
          "type": "uint256"
        }
      ],
      "name": "ownerOf",
      "outputs": [
        {
          "internalType": "address",
          "name": "",
          "type": "address"
        }
      ],
      "stateMutability": "view",
      "type": "function"
    },
    {
      "inputs": [
        {
          "internalType": "address",
          "name": "from",
          "type": "address"
        },
        {
          "internalType": "address",
          "name": "to",
          "type": "address"
        },
        {
          "internalType": "uint256",
          "name": "tokenId",
          "type": "uint256"
        }
      ],
      "name": "safeTransferFrom",
      "outputs": [],
      "stateMutability": "nonpayable",
      "type": "function"
    },
    {
      "inputs": [
        {
          "internalType": "address",
          "name": "from",
          "type": "address"
        },
        {
          "internalType": "address",
          "name": "to",
          "type": "address"
        },
        {
          "internalType": "uint256",
          "name": "tokenId",
          "type": "uint256"
        },
        {
          "internalType": "bytes",
          "name": "data",
          "type": "bytes"
        }
      ],
      "name": "safeTransferFrom",
      "outputs": [],
      "stateMutability": "nonpayable",
      "type": "function"
    },
    {
      "inputs": [
        {
          "internalType": "address",
          "name": "operator",
          "type": "address"
        },
        {
          "internalType": "bool",
          "name": "approved",
          "type": "bool"
        }
      ],
      "name": "setApprovalForAll",
      "outputs": [],
      "stateMutability": "nonpayable",
      "type": "function"
    },
    {
      "inputs": [
        {
          "internalType": "bytes4",
          "name": "interfaceId",
          "type": "bytes4"
        }
      ],
      "name": "supportsInterface",
      "outputs": [
        {
          "internalType": "bool",
          "name": "",
          "type": "bool"
        }
      ],
      "stateMutability": "view",
      "type": "function"
    },
    {
      "inputs": [],
      "name": "symbol",
      "outputs": [
        {
          "internalType": "string",
          "name": "",
          "type": "string"
        }
      ],
      "stateMutability": "view",
      "type": "function"
    },
    {
      "inputs": [
        {
          "internalType": "uint256",
          "name": "tokenId",
          "type": "uint256"
        }
      ],
      "name": "tokenURI",
      "outputs": [
        {
          "internalType": "string",
          "name": "",
          "type": "string"
        }
      ],
      "stateMutability": "view",
      "type": "function"
    },
    {
      "inputs": [
        {
          "internalType": "address",
          "name": "from",
          "type": "address"
        },
        {
          "internalType": "address",
          "name": "to",
          "type": "address"
        },
        {
          "internalType": "uint256",
          "name": "tokenId",
          "type": "uint256"
        }
      ],
      "name": "transferFrom",
      "outputs": [],
      "stateMutability": "nonpayable",
      "type": "function"
    },
    {
      "inputs": [
        {
          "internalType": "uint256",
          "name": "_listPrice",
          "type": "uint256"
        }
      ],
      "name": "updateListPrice",
      "outputs": [],
      "stateMutability": "payable",
      "type": "function"
    }
  ],
  "bytecode": "0x6080604052662386f26fc10000600a553480156200001c57600080fd5b506040518060400160405280600d81526020017f4e46544d61726b65746c616365000000000000000000000000000000000000008152506040518060400160405280600481526020017f4e46544d000000000000000000000000000000000000000000000000000000008152508160009080519060200190620000a192919062000104565b508060019080519060200190620000ba92919062000104565b50505033600760006101000a81548173ffffffffffffffffffffffffffffffffffffffff021916908373ffffffffffffffffffffffffffffffffffffffff16021790555062000219565b8280546200011290620001b4565b90600052602060002090601f01602090048101928262000136576000855562000182565b82601f106200015157805160ff191683800117855562000182565b8280016001018555821562000182579182015b828111156200018157825182559160200191906001019062000164565b5b50905062000191919062000195565b5090565b5b80821115620001b057600081600090555060010162000196565b5090565b60006002820490506001821680620001cd57607f821691505b60208210811415620001e457620001e3620001ea565b5b50919050565b7f4e487b7100000000000000000000000000000000000000000000000000000000600052602260045260246000fd5b613e7080620002296000396000f3fe6080604052600436106101355760003560e01c8063732e8d73116100ab578063b88d4fde1161006f578063b88d4fde14610432578063c322579c1461045b578063c87b56dd14610477578063d1a88ae5146104b4578063e985e9c5146104df578063ef2d17461461051c57610135565b8063732e8d731461035a57806395d89b411461038557806398c3df16146103b05780639b1225c4146103ed578063a22cb4651461040957610135565b806323b872dd116100fd57806323b872dd1461023357806342842e0e1461025c5780636352211e1461028557806368f1945f146102c257806370a08231146102ed57806372b3b6201461032a57610135565b806301ffc9a71461013a578063047b07bf1461017757806306fdde03146101a2578063081812fc146101cd578063095ea7b31461020a575b600080fd5b34801561014657600080fd5b50610161600480360381019061015c9190612e2b565b610547565b60405161016e919061341a565b60405180910390f35b34801561018357600080fd5b5061018c6105a8565b60405161019991906133f8565b60405180910390f35b3480156101ae57600080fd5b506101b76109d2565b6040516101c49190613435565b60405180910390f35b3480156101d957600080fd5b506101f460048036038101906101ef9190612ed1565b610a64565b6040516102019190613391565b60405180910390f35b34801561021657600080fd5b50610231600480360381019061022c9190612def565b610aaa565b005b34801561023f57600080fd5b5061025a60048036038101906102559190612ce9565b610bc2565b005b34801561026857600080fd5b50610283600480360381019061027e9190612ce9565b610c22565b005b34801561029157600080fd5b506102ac60048036038101906102a79190612ed1565b610c42565b6040516102b99190613391565b60405180910390f35b3480156102ce57600080fd5b506102d7610cc9565b6040516102e49190613672565b60405180910390f35b3480156102f957600080fd5b50610314600480360381019061030f9190612c84565b610cd3565b6040516103219190613672565b60405180910390f35b610344600480360381019061033f9190612e7d565b610d8b565b6040516103519190613672565b60405180910390f35b34801561036657600080fd5b5061036f610e54565b60405161037c91906133f8565b60405180910390f35b34801561039157600080fd5b5061039a61106f565b6040516103a79190613435565b60405180910390f35b3480156103bc57600080fd5b506103d760048036038101906103d29190612ed1565b611101565b6040516103e49190613657565b60405180910390f35b61040760048036038101906104029190612ed1565b611209565b005b34801561041557600080fd5b50610430600480360381019061042b9190612db3565b6113fb565b005b34801561043e57600080fd5b5061045960048036038101906104549190612d38565b611411565b005b61047560048036038101906104709190612ed1565b611473565b005b34801561048357600080fd5b5061049e60048036038101906104999190612ed1565b61150d565b6040516104ab9190613435565b60405180910390f35b3480156104c057600080fd5b506104c9611620565b6040516104d69190613657565b60405180910390f35b3480156104eb57600080fd5b5061050660048036038101906105019190612cad565b611735565b604051610513919061341a565b60405180910390f35b34801561052857600080fd5b506105316117c9565b60405161053e9190613672565b60405180910390f35b6000634906490660e01b7bffffffffffffffffffffffffffffffffffffffffffffffffffffffff1916827bffffffffffffffffffffffffffffffffffffffffffffffffffffffff191614806105a157506105a0826117da565b5b9050919050565b606060006105b660086118bc565b905060008060005b838110156106d7573373ffffffffffffffffffffffffffffffffffffffff16600b60006001846105ee9190613790565b815260200190815260200160002060010160009054906101000a900473ffffffffffffffffffffffffffffffffffffffff1673ffffffffffffffffffffffffffffffffffffffff1614806106af57503373ffffffffffffffffffffffffffffffffffffffff16600b60006001846106659190613790565b815260200190815260200160002060020160009054906101000a900473ffffffffffffffffffffffffffffffffffffffff1673ffffffffffffffffffffffffffffffffffffffff16145b156106c4576001836106c19190613790565b92505b80806106cf90613911565b9150506105be565b5060008267ffffffffffffffff81111561071a577f4e487b7100000000000000000000000000000000000000000000000000000000600052604160045260246000fd5b60405190808252806020026020018201604052801561075357816020015b610740612a4b565b8152602001906001900390816107385790505b50905060005b848110156109c7573373ffffffffffffffffffffffffffffffffffffffff16600b60006001846107899190613790565b815260200190815260200160002060010160009054906101000a900473ffffffffffffffffffffffffffffffffffffffff1673ffffffffffffffffffffffffffffffffffffffff16148061084a57503373ffffffffffffffffffffffffffffffffffffffff16600b60006001846108009190613790565b815260200190815260200160002060020160009054906101000a900473ffffffffffffffffffffffffffffffffffffffff1673ffffffffffffffffffffffffffffffffffffffff16145b156109b457600060018261085e9190613790565b90506000600b60008381526020019081526020016000209050806040518060a0016040529081600082015481526020016001820160009054906101000a900473ffffffffffffffffffffffffffffffffffffffff1673ffffffffffffffffffffffffffffffffffffffff1673ffffffffffffffffffffffffffffffffffffffff1681526020016002820160009054906101000a900473ffffffffffffffffffffffffffffffffffffffff1673ffffffffffffffffffffffffffffffffffffffff1673ffffffffffffffffffffffffffffffffffffffff168152602001600382015481526020016004820160009054906101000a900460ff161515151581525050848681518110610997577f4e487b7100000000000000000000000000000000000000000000000000000000600052603260045260246000fd5b60200260200101819052506001856109af9190613790565b945050505b80806109bf90613911565b915050610759565b508094505050505090565b6060600080546109e1906138ae565b80601f0160208091040260200160405190810160405280929190818152602001828054610a0d906138ae565b8015610a5a5780601f10610a2f57610100808354040283529160200191610a5a565b820191906000526020600020905b815481529060010190602001808311610a3d57829003601f168201915b5050505050905090565b6000610a6f826118ca565b6004600083815260200190815260200160002060009054906101000a900473ffffffffffffffffffffffffffffffffffffffff169050919050565b6000610ab582610c42565b90508073ffffffffffffffffffffffffffffffffffffffff168373ffffffffffffffffffffffffffffffffffffffff161415610b26576040517f08c379a0000000000000000000000000000000000000000000000000000000008152600401610b1d906135f7565b60405180910390fd5b8073ffffffffffffffffffffffffffffffffffffffff16610b45611915565b73ffffffffffffffffffffffffffffffffffffffff161480610b745750610b7381610b6e611915565b611735565b5b610bb3576040517f08c379a0000000000000000000000000000000000000000000000000000000008152600401610baa90613617565b60405180910390fd5b610bbd838361191d565b505050565b610bd3610bcd611915565b826119d6565b610c12576040517f08c379a0000000000000000000000000000000000000000000000000000000008152600401610c0990613457565b60405180910390fd5b610c1d838383611a6b565b505050565b610c3d83838360405180602001604052806000815250611411565b505050565b600080610c4e83611d65565b9050600073ffffffffffffffffffffffffffffffffffffffff168173ffffffffffffffffffffffffffffffffffffffff161415610cc0576040517f08c379a0000000000000000000000000000000000000000000000000000000008152600401610cb7906135d7565b60405180910390fd5b80915050919050565b6000600a54905090565b60008073ffffffffffffffffffffffffffffffffffffffff168273ffffffffffffffffffffffffffffffffffffffff161415610d44576040517f08c379a0000000000000000000000000000000000000000000000000000000008152600401610d3b90613557565b60405180910390fd5b600360008373ffffffffffffffffffffffffffffffffffffffff1673ffffffffffffffffffffffffffffffffffffffff168152602001908152602001600020549050919050565b6000600a543414610dd1576040517f08c379a0000000000000000000000000000000000000000000000000000000008152600401610dc890613537565b60405180910390fd5b60008211610e14576040517f08c379a0000000000000000000000000000000000000000000000000000000008152600401610e0b90613637565b60405180910390fd5b610e1e6008611da2565b6000610e2a60086118bc565b9050610e363382611db8565b610e408185611dd6565b610e4a8184611e81565b8091505092915050565b60606000610e6260086118bc565b905060008167ffffffffffffffff811115610ea6577f4e487b7100000000000000000000000000000000000000000000000000000000600052604160045260246000fd5b604051908082528060200260200182016040528015610edf57816020015b610ecc612a4b565b815260200190600190039081610ec45790505b5090506000805b83811015611065576000600182610efd9190613790565b90506000600b60008381526020019081526020016000209050806040518060a0016040529081600082015481526020016001820160009054906101000a900473ffffffffffffffffffffffffffffffffffffffff1673ffffffffffffffffffffffffffffffffffffffff1673ffffffffffffffffffffffffffffffffffffffff1681526020016002820160009054906101000a900473ffffffffffffffffffffffffffffffffffffffff1673ffffffffffffffffffffffffffffffffffffffff1673ffffffffffffffffffffffffffffffffffffffff168152602001600382015481526020016004820160009054906101000a900460ff161515151581525050858581518110611036577f4e487b7100000000000000000000000000000000000000000000000000000000600052603260045260246000fd5b602002602001018190525060018461104e9190613790565b93505050808061105d90613911565b915050610ee6565b5081935050505090565b60606001805461107e906138ae565b80601f01602080910402602001604051908101604052809291908181526020018280546110aa906138ae565b80156110f75780601f106110cc576101008083540402835291602001916110f7565b820191906000526020600020905b8154815290600101906020018083116110da57829003601f168201915b5050505050905090565b611109612a4b565b600b60008381526020019081526020016000206040518060a0016040529081600082015481526020016001820160009054906101000a900473ffffffffffffffffffffffffffffffffffffffff1673ffffffffffffffffffffffffffffffffffffffff1673ffffffffffffffffffffffffffffffffffffffff1681526020016002820160009054906101000a900473ffffffffffffffffffffffffffffffffffffffff1673ffffffffffffffffffffffffffffffffffffffff1673ffffffffffffffffffffffffffffffffffffffff168152602001600382015481526020016004820160009054906101000a900460ff1615151515815250509050919050565b6000600b6000838152602001908152602001600020600301549050803414611266576040517f08c379a000000000000000000000000000000000000000000000000000000000815260040161125d90613497565b60405180910390fd5b6000600b600084815260200190815260200160002060020160009054906101000a900473ffffffffffffffffffffffffffffffffffffffff1690506001600b600085815260200190815260200160002060040160006101000a81548160ff02191690831515021790555033600b600085815260200190815260200160002060020160006101000a81548173ffffffffffffffffffffffffffffffffffffffff021916908373ffffffffffffffffffffffffffffffffffffffff16021790555061132f6009611da2565b61133a303385611a6b565b6113443084610aaa565b600760009054906101000a900473ffffffffffffffffffffffffffffffffffffffff1673ffffffffffffffffffffffffffffffffffffffff166108fc600a549081150290604051600060405180830381858888f193505050501580156113ae573d6000803e3d6000fd5b508073ffffffffffffffffffffffffffffffffffffffff166108fc349081150290604051600060405180830381858888f193505050501580156113f5573d6000803e3d6000fd5b50505050565b61140d611406611915565b8383611fbe565b5050565b61142261141c611915565b836119d6565b611461576040517f08c379a000000000000000000000000000000000000000000000000000000000815260040161145890613457565b60405180910390fd5b61146d8484848461212b565b50505050565b3373ffffffffffffffffffffffffffffffffffffffff16600760009054906101000a900473ffffffffffffffffffffffffffffffffffffffff1673ffffffffffffffffffffffffffffffffffffffff1614611503576040517f08c379a00000000000000000000000000000000000000000000000000000000081526004016114fa90613597565b60405180910390fd5b80600a8190555050565b6060611518826118ca565b6000600660008481526020019081526020016000208054611538906138ae565b80601f0160208091040260200160405190810160405280929190818152602001828054611564906138ae565b80156115b15780601f10611586576101008083540402835291602001916115b1565b820191906000526020600020905b81548152906001019060200180831161159457829003601f168201915b5050505050905060006115c2612187565b90506000815114156115d857819250505061161b565b60008251111561160d5780826040516020016115f592919061336d565b6040516020818303038152906040529250505061161b565b6116168461219e565b925050505b919050565b611628612a4b565b600061163460086118bc565b9050600b60008281526020019081526020016000206040518060a0016040529081600082015481526020016001820160009054906101000a900473ffffffffffffffffffffffffffffffffffffffff1673ffffffffffffffffffffffffffffffffffffffff1673ffffffffffffffffffffffffffffffffffffffff1681526020016002820160009054906101000a900473ffffffffffffffffffffffffffffffffffffffff1673ffffffffffffffffffffffffffffffffffffffff1673ffffffffffffffffffffffffffffffffffffffff168152602001600382015481526020016004820160009054906101000a900460ff16151515158152505091505090565b6000600560008473ffffffffffffffffffffffffffffffffffffffff1673ffffffffffffffffffffffffffffffffffffffff16815260200190815260200160002060008373ffffffffffffffffffffffffffffffffffffffff1673ffffffffffffffffffffffffffffffffffffffff16815260200190815260200160002060009054906101000a900460ff16905092915050565b60006117d560086118bc565b905090565b60007f80ac58cd000000000000000000000000000000000000000000000000000000007bffffffffffffffffffffffffffffffffffffffffffffffffffffffff1916827bffffffffffffffffffffffffffffffffffffffffffffffffffffffff191614806118a557507f5b5e139f000000000000000000000000000000000000000000000000000000007bffffffffffffffffffffffffffffffffffffffffffffffffffffffff1916827bffffffffffffffffffffffffffffffffffffffffffffffffffffffff1916145b806118b557506118b482612206565b5b9050919050565b600081600001549050919050565b6118d381612270565b611912576040517f08c379a0000000000000000000000000000000000000000000000000000000008152600401611909906135d7565b60405180910390fd5b50565b600033905090565b816004600083815260200190815260200160002060006101000a81548173ffffffffffffffffffffffffffffffffffffffff021916908373ffffffffffffffffffffffffffffffffffffffff160217905550808273ffffffffffffffffffffffffffffffffffffffff1661199083610c42565b73ffffffffffffffffffffffffffffffffffffffff167f8c5be1e5ebec7d5bd14f71427d1e84f3dd0314c0f7b2291e5b200ac8c7c3b92560405160405180910390a45050565b6000806119e283610c42565b90508073ffffffffffffffffffffffffffffffffffffffff168473ffffffffffffffffffffffffffffffffffffffff161480611a245750611a238185611735565b5b80611a6257508373ffffffffffffffffffffffffffffffffffffffff16611a4a84610a64565b73ffffffffffffffffffffffffffffffffffffffff16145b91505092915050565b8273ffffffffffffffffffffffffffffffffffffffff16611a8b82610c42565b73ffffffffffffffffffffffffffffffffffffffff1614611ae1576040517f08c379a0000000000000000000000000000000000000000000000000000000008152600401611ad8906134b7565b60405180910390fd5b600073ffffffffffffffffffffffffffffffffffffffff168273ffffffffffffffffffffffffffffffffffffffff161415611b51576040517f08c379a0000000000000000000000000000000000000000000000000000000008152600401611b48906134f7565b60405180910390fd5b611b5e83838360016122b1565b8273ffffffffffffffffffffffffffffffffffffffff16611b7e82610c42565b73ffffffffffffffffffffffffffffffffffffffff1614611bd4576040517f08c379a0000000000000000000000000000000000000000000000000000000008152600401611bcb906134b7565b60405180910390fd5b6004600082815260200190815260200160002060006101000a81549073ffffffffffffffffffffffffffffffffffffffff02191690556001600360008573ffffffffffffffffffffffffffffffffffffffff1673ffffffffffffffffffffffffffffffffffffffff168152602001908152602001600020600082825403925050819055506001600360008473ffffffffffffffffffffffffffffffffffffffff1673ffffffffffffffffffffffffffffffffffffffff16815260200190815260200160002060008282540192505081905550816002600083815260200190815260200160002060006101000a81548173ffffffffffffffffffffffffffffffffffffffff021916908373ffffffffffffffffffffffffffffffffffffffff160217905550808273ffffffffffffffffffffffffffffffffffffffff168473ffffffffffffffffffffffffffffffffffffffff167fddf252ad1be2c89b69c2b068fc378daa952ba7f163c4a11628f55a4df523b3ef60405160405180910390a4611d6083838360016122b7565b505050565b60006002600083815260200190815260200160002060009054906101000a900473ffffffffffffffffffffffffffffffffffffffff169050919050565b6001816000016000828254019250508190555050565b611dd28282604051806020016040528060008152506122bd565b5050565b611ddf82612270565b611e1e576040517f08c379a0000000000000000000000000000000000000000000000000000000008152600401611e1590613577565b60405180910390fd5b80600660008481526020019081526020016000209080519060200190611e45929190612aa8565b507ff8e1a15aba9398e019f0b49df1a4fde98ee17ae345cb5f6b5e2c27f5033e8ce782604051611e759190613672565b60405180910390a15050565b6040518060a001604052808381526020013073ffffffffffffffffffffffffffffffffffffffff1681526020013373ffffffffffffffffffffffffffffffffffffffff16815260200182815260200160011515815250600b60008481526020019081526020016000206000820151816000015560208201518160010160006101000a81548173ffffffffffffffffffffffffffffffffffffffff021916908373ffffffffffffffffffffffffffffffffffffffff16021790555060408201518160020160006101000a81548173ffffffffffffffffffffffffffffffffffffffff021916908373ffffffffffffffffffffffffffffffffffffffff1602179055506060820151816003015560808201518160040160006101000a81548160ff021916908315150217905550905050611fba333084611a6b565b5050565b8173ffffffffffffffffffffffffffffffffffffffff168373ffffffffffffffffffffffffffffffffffffffff16141561202d576040517f08c379a000000000000000000000000000000000000000000000000000000000815260040161202490613517565b60405180910390fd5b80600560008573ffffffffffffffffffffffffffffffffffffffff1673ffffffffffffffffffffffffffffffffffffffff16815260200190815260200160002060008473ffffffffffffffffffffffffffffffffffffffff1673ffffffffffffffffffffffffffffffffffffffff16815260200190815260200160002060006101000a81548160ff0219169083151502179055508173ffffffffffffffffffffffffffffffffffffffff168373ffffffffffffffffffffffffffffffffffffffff167f17307eab39ab6107e8899845ad3d59bd9653f200f220920489ca2b5937696c318360405161211e919061341a565b60405180910390a3505050565b612136848484611a6b565b61214284848484612318565b612181576040517f08c379a000000000000000000000000000000000000000000000000000000000815260040161217890613477565b60405180910390fd5b50505050565b606060405180602001604052806000815250905090565b60606121a9826118ca565b60006121b3612187565b905060008151116121d357604051806020016040528060008152506121fe565b806121dd846124af565b6040516020016121ee92919061336d565b6040516020818303038152906040525b915050919050565b60007f01ffc9a7000000000000000000000000000000000000000000000000000000007bffffffffffffffffffffffffffffffffffffffffffffffffffffffff1916827bffffffffffffffffffffffffffffffffffffffffffffffffffffffff1916149050919050565b60008073ffffffffffffffffffffffffffffffffffffffff1661229283611d65565b73ffffffffffffffffffffffffffffffffffffffff1614159050919050565b50505050565b50505050565b6122c783836125d3565b6122d46000848484612318565b612313576040517f08c379a000000000000000000000000000000000000000000000000000000000815260040161230a90613477565b60405180910390fd5b505050565b60006123398473ffffffffffffffffffffffffffffffffffffffff166127f1565b156124a2578373ffffffffffffffffffffffffffffffffffffffff1663150b7a02612362611915565b8786866040518563ffffffff1660e01b815260040161238494939291906133ac565b602060405180830381600087803b15801561239e57600080fd5b505af19250505080156123cf57506040513d601f19601f820116820180604052508101906123cc9190612e54565b60015b612452573d80600081146123ff576040519150601f19603f3d011682016040523d82523d6000602084013e612404565b606091505b5060008151141561244a576040517f08c379a000000000000000000000000000000000000000000000000000000000815260040161244190613477565b60405180910390fd5b805181602001fd5b63150b7a0260e01b7bffffffffffffffffffffffffffffffffffffffffffffffffffffffff1916817bffffffffffffffffffffffffffffffffffffffffffffffffffffffff1916149150506124a7565b600190505b949350505050565b6060600060016124be84612814565b01905060008167ffffffffffffffff811115612503577f4e487b7100000000000000000000000000000000000000000000000000000000600052604160045260246000fd5b6040519080825280601f01601f1916602001820160405280156125355781602001600182028036833780820191505090505b509050600082602001820190505b6001156125c8578080600190039150507f3031323334353637383961626364656600000000000000000000000000000000600a86061a8153600a85816125b2577f4e487b7100000000000000000000000000000000000000000000000000000000600052601260045260246000fd5b04945060008514156125c3576125c8565b612543565b819350505050919050565b600073ffffffffffffffffffffffffffffffffffffffff168273ffffffffffffffffffffffffffffffffffffffff161415612643576040517f08c379a000000000000000000000000000000000000000000000000000000000815260040161263a906135b7565b60405180910390fd5b61264c81612270565b1561268c576040517f08c379a0000000000000000000000000000000000000000000000000000000008152600401612683906134d7565b60405180910390fd5b61269a6000838360016122b1565b6126a381612270565b156126e3576040517f08c379a00000000000000000000000000000000000000000000000000000000081526004016126da906134d7565b60405180910390fd5b6001600360008473ffffffffffffffffffffffffffffffffffffffff1673ffffffffffffffffffffffffffffffffffffffff16815260200190815260200160002060008282540192505081905550816002600083815260200190815260200160002060006101000a81548173ffffffffffffffffffffffffffffffffffffffff021916908373ffffffffffffffffffffffffffffffffffffffff160217905550808273ffffffffffffffffffffffffffffffffffffffff16600073ffffffffffffffffffffffffffffffffffffffff167fddf252ad1be2c89b69c2b068fc378daa952ba7f163c4a11628f55a4df523b3ef60405160405180910390a46127ed6000838360016122b7565b5050565b6000808273ffffffffffffffffffffffffffffffffffffffff163b119050919050565b600080600090507a184f03e93ff9f4daa797ed6e38ed64bf6a1f0100000000000000008310612898577a184f03e93ff9f4daa797ed6e38ed64bf6a1f010000000000000000838161288e577f4e487b7100000000000000000000000000000000000000000000000000000000600052601260045260246000fd5b0492506040810190505b6d04ee2d6d415b85acef810000000083106128fb576d04ee2d6d415b85acef810000000083816128f1577f4e487b7100000000000000000000000000000000000000000000000000000000600052601260045260246000fd5b0492506020810190505b662386f26fc10000831061295057662386f26fc100008381612946577f4e487b7100000000000000000000000000000000000000000000000000000000600052601260045260246000fd5b0492506010810190505b6305f5e100831061299f576305f5e1008381612995577f4e487b7100000000000000000000000000000000000000000000000000000000600052601260045260246000fd5b0492506008810190505b61271083106129ea5761271083816129e0577f4e487b7100000000000000000000000000000000000000000000000000000000600052601260045260246000fd5b0492506004810190505b60648310612a335760648381612a29577f4e487b7100000000000000000000000000000000000000000000000000000000600052601260045260246000fd5b0492506002810190505b600a8310612a42576001810190505b80915050919050565b6040518060a0016040528060008152602001600073ffffffffffffffffffffffffffffffffffffffff168152602001600073ffffffffffffffffffffffffffffffffffffffff168152602001600081526020016000151581525090565b828054612ab4906138ae565b90600052602060002090601f016020900481019282612ad65760008555612b1d565b82601f10612aef57805160ff1916838001178555612b1d565b82800160010185558215612b1d579182015b82811115612b1c578251825591602001919060010190612b01565b5b509050612b2a9190612b2e565b5090565b5b80821115612b47576000816000905550600101612b2f565b5090565b6000612b5e612b59846136b2565b61368d565b905082815260208101848484011115612b7657600080fd5b612b8184828561386c565b509392505050565b6000612b9c612b97846136e3565b61368d565b905082815260208101848484011115612bb457600080fd5b612bbf84828561386c565b509392505050565b600081359050612bd681613dde565b92915050565b600081359050612beb81613df5565b92915050565b600081359050612c0081613e0c565b92915050565b600081519050612c1581613e0c565b92915050565b600082601f830112612c2c57600080fd5b8135612c3c848260208601612b4b565b91505092915050565b600082601f830112612c5657600080fd5b8135612c66848260208601612b89565b91505092915050565b600081359050612c7e81613e23565b92915050565b600060208284031215612c9657600080fd5b6000612ca484828501612bc7565b91505092915050565b60008060408385031215612cc057600080fd5b6000612cce85828601612bc7565b9250506020612cdf85828601612bc7565b9150509250929050565b600080600060608486031215612cfe57600080fd5b6000612d0c86828701612bc7565b9350506020612d1d86828701612bc7565b9250506040612d2e86828701612c6f565b9150509250925092565b60008060008060808587031215612d4e57600080fd5b6000612d5c87828801612bc7565b9450506020612d6d87828801612bc7565b9350506040612d7e87828801612c6f565b925050606085013567ffffffffffffffff811115612d9b57600080fd5b612da787828801612c1b565b91505092959194509250565b60008060408385031215612dc657600080fd5b6000612dd485828601612bc7565b9250506020612de585828601612bdc565b9150509250929050565b60008060408385031215612e0257600080fd5b6000612e1085828601612bc7565b9250506020612e2185828601612c6f565b9150509250929050565b600060208284031215612e3d57600080fd5b6000612e4b84828501612bf1565b91505092915050565b600060208284031215612e6657600080fd5b6000612e7484828501612c06565b91505092915050565b60008060408385031215612e9057600080fd5b600083013567ffffffffffffffff811115612eaa57600080fd5b612eb685828601612c45565b9250506020612ec785828601612c6f565b9150509250929050565b600060208284031215612ee357600080fd5b6000612ef184828501612c6f565b91505092915050565b6000612f06838361327f565b60a08301905092915050565b612f1b816137f8565b82525050565b612f2a816137e6565b82525050565b6000612f3b82613724565b612f458185613752565b9350612f5083613714565b8060005b83811015612f81578151612f688882612efa565b9750612f7383613745565b925050600181019050612f54565b5085935050505092915050565b612f978161380a565b82525050565b612fa68161380a565b82525050565b6000612fb78261372f565b612fc18185613763565b9350612fd181856020860161387b565b612fda816139e7565b840191505092915050565b6000612ff08261373a565b612ffa8185613774565b935061300a81856020860161387b565b613013816139e7565b840191505092915050565b60006130298261373a565b6130338185613785565b935061304381856020860161387b565b80840191505092915050565b600061305c602d83613774565b9150613067826139f8565b604082019050919050565b600061307f603283613774565b915061308a82613a47565b604082019050919050565b60006130a2601e83613774565b91506130ad82613a96565b602082019050919050565b60006130c5602583613774565b91506130d082613abf565b604082019050919050565b60006130e8601c83613774565b91506130f382613b0e565b602082019050919050565b600061310b602483613774565b915061311682613b37565b604082019050919050565b600061312e601983613774565b915061313982613b86565b602082019050919050565b6000613151601983613774565b915061315c82613baf565b602082019050919050565b6000613174602983613774565b915061317f82613bd8565b604082019050919050565b6000613197602e83613774565b91506131a282613c27565b604082019050919050565b60006131ba601f83613774565b91506131c582613c76565b602082019050919050565b60006131dd602083613774565b91506131e882613c9f565b602082019050919050565b6000613200601883613774565b915061320b82613cc8565b602082019050919050565b6000613223602183613774565b915061322e82613cf1565b604082019050919050565b6000613246603d83613774565b915061325182613d40565b604082019050919050565b6000613269602283613774565b915061327482613d8f565b604082019050919050565b60a082016000820151613295600085018261334f565b5060208201516132a86020850182612f12565b5060408201516132bb6040850182612f12565b5060608201516132ce606085018261334f565b5060808201516132e16080850182612f8e565b50505050565b60a0820160008201516132fd600085018261334f565b5060208201516133106020850182612f12565b5060408201516133236040850182612f12565b506060820151613336606085018261334f565b5060808201516133496080850182612f8e565b50505050565b61335881613862565b82525050565b61336781613862565b82525050565b6000613379828561301e565b9150613385828461301e565b91508190509392505050565b60006020820190506133a66000830184612f21565b92915050565b60006080820190506133c16000830187612f21565b6133ce6020830186612f21565b6133db604083018561335e565b81810360608301526133ed8184612fac565b905095945050505050565b600060208201905081810360008301526134128184612f30565b905092915050565b600060208201905061342f6000830184612f9d565b92915050565b6000602082019050818103600083015261344f8184612fe5565b905092915050565b600060208201905081810360008301526134708161304f565b9050919050565b6000602082019050818103600083015261349081613072565b9050919050565b600060208201905081810360008301526134b081613095565b9050919050565b600060208201905081810360008301526134d0816130b8565b9050919050565b600060208201905081810360008301526134f0816130db565b9050919050565b60006020820190508181036000830152613510816130fe565b9050919050565b6000602082019050818103600083015261353081613121565b9050919050565b6000602082019050818103600083015261355081613144565b9050919050565b6000602082019050818103600083015261357081613167565b9050919050565b600060208201905081810360008301526135908161318a565b9050919050565b600060208201905081810360008301526135b0816131ad565b9050919050565b600060208201905081810360008301526135d0816131d0565b9050919050565b600060208201905081810360008301526135f0816131f3565b9050919050565b6000602082019050818103600083015261361081613216565b9050919050565b6000602082019050818103600083015261363081613239565b9050919050565b600060208201905081810360008301526136508161325c565b9050919050565b600060a08201905061366c60008301846132e7565b92915050565b6000602082019050613687600083018461335e565b92915050565b60006136976136a8565b90506136a382826138e0565b919050565b6000604051905090565b600067ffffffffffffffff8211156136cd576136cc6139b8565b5b6136d6826139e7565b9050602081019050919050565b600067ffffffffffffffff8211156136fe576136fd6139b8565b5b613707826139e7565b9050602081019050919050565b6000819050602082019050919050565b600081519050919050565b600081519050919050565b600081519050919050565b6000602082019050919050565b600082825260208201905092915050565b600082825260208201905092915050565b600082825260208201905092915050565b600081905092915050565b600061379b82613862565b91506137a683613862565b9250827fffffffffffffffffffffffffffffffffffffffffffffffffffffffffffffffff038211156137db576137da61395a565b5b828201905092915050565b60006137f182613842565b9050919050565b600061380382613842565b9050919050565b60008115159050919050565b60007fffffffff0000000000000000000000000000000000000000000000000000000082169050919050565b600073ffffffffffffffffffffffffffffffffffffffff82169050919050565b6000819050919050565b82818337600083830152505050565b60005b8381101561389957808201518184015260208101905061387e565b838111156138a8576000848401525b50505050565b600060028204905060018216806138c657607f821691505b602082108114156138da576138d9613989565b5b50919050565b6138e9826139e7565b810181811067ffffffffffffffff82111715613908576139076139b8565b5b80604052505050565b600061391c82613862565b91507fffffffffffffffffffffffffffffffffffffffffffffffffffffffffffffffff82141561394f5761394e61395a565b5b600182019050919050565b7f4e487b7100000000000000000000000000000000000000000000000000000000600052601160045260246000fd5b7f4e487b7100000000000000000000000000000000000000000000000000000000600052602260045260246000fd5b7f4e487b7100000000000000000000000000000000000000000000000000000000600052604160045260246000fd5b6000601f19601f8301169050919050565b7f4552433732313a2063616c6c6572206973206e6f7420746f6b656e206f776e6560008201527f72206f7220617070726f76656400000000000000000000000000000000000000602082015250565b7f4552433732313a207472616e7366657220746f206e6f6e20455243373231526560008201527f63656976657220696d706c656d656e7465720000000000000000000000000000602082015250565b7f506c65617365207375626d6974207468652061736b696e672070726963650000600082015250565b7f4552433732313a207472616e736665722066726f6d20696e636f72726563742060008201527f6f776e6572000000000000000000000000000000000000000000000000000000602082015250565b7f4552433732313a20746f6b656e20616c7265616479206d696e74656400000000600082015250565b7f4552433732313a207472616e7366657220746f20746865207a65726f2061646460008201527f7265737300000000000000000000000000000000000000000000000000000000602082015250565b7f4552433732313a20617070726f766520746f2063616c6c657200000000000000600082015250565b7f53656e6420656e6f75676820657468657220746f206c69737400000000000000600082015250565b7f4552433732313a2061646472657373207a65726f206973206e6f74206120766160008201527f6c6964206f776e65720000000000000000000000000000000000000000000000602082015250565b7f45524337323155524953746f726167653a2055524920736574206f66206e6f6e60008201527f6578697374656e7420746f6b656e000000000000000000000000000000000000602082015250565b7f4f6e6c79206f776e65722063616e206368616e67652074686520707269636500600082015250565b7f4552433732313a206d696e7420746f20746865207a65726f2061646472657373600082015250565b7f4552433732313a20696e76616c696420746f6b656e2049440000000000000000600082015250565b7f4552433732313a20617070726f76616c20746f2063757272656e74206f776e6560008201527f7200000000000000000000000000000000000000000000000000000000000000602082015250565b7f4552433732313a20617070726f76652063616c6c6572206973206e6f7420746f60008201527f6b656e206f776e6572206f7220617070726f76656420666f7220616c6c000000602082015250565b7f4d616b652073757265207468652070726963652069736e2774206e656761746960008201527f7665000000000000000000000000000000000000000000000000000000000000602082015250565b613de7816137e6565b8114613df257600080fd5b50565b613dfe8161380a565b8114613e0957600080fd5b50565b613e1581613816565b8114613e2057600080fd5b50565b613e2c81613862565b8114613e3757600080fd5b5056fea2646970667358221220b349938de0c714e4912e4966137009b1769d2e46480a3e6145f218985302028a64736f6c63430008040033",
  "linkReferences": {},
  "deployedLinkReferences": {}
}